:100000000000042079040000E5040000E50400007D
:1000100000000000000000000000000000000000E0
:10002000000000000000000000000000E5040000E7
:100030000000000000000000E5040000E5040000EE
:1000400000000000000000000000000000000000B0
:1000500000000000000000000000000000000000A0
:100060000000000000000000000000000000000090
:100070000000000000000000000000000000000080
:100080000000000000000000000000000000000070
:100090000000000000000000000000000000000060
:1000A0000000000000000000000000000000000050
:1000B000E5040000E5040000E5040000E50400009C
:1000C0000000000000000000000000000000000030
:1000D0000000000000000000000000000000000020
:1000E0000000000000000000000000000000000010
:1000F0000000000000000000000000000000000000
:1001000000000000000000000000000000000000EF
:1001100000000000000000000000000000000000DF
:1001200000000000000000000000000000000000CF
:1001300000000000000000000000000000000000BF
:10014000E5040000E50400000000000000000000DD
:100150000000000000000000E5040000E5040000CD
:10016000E504000000000000E5040000E5040000D4
:10017000E504000000000000000000000000000096
:100180000000000000000000E50400000000000086
:10019000E5040000E504000000000000000000008D
:1001A000000000000000000000000000000000004F
:1001B000000000000000000000000000000000003F
:1001C000000000000000000000000000000000002F
:1001D000000000000000000000000000000000001F
:1001E000000000000000000000000000000000000F
:1001F00000000000000000000000000000000000FF
:1002000000000000000000000000000000000000EE
:1002100000000000000000000000000000000000DE
:1002200000000000000000000000000000000000CE
:1002300000000000000000000000000000000000BE
:10024000E5040000000000000000000000000000C5
:1002500000000000E504000000000000E5040000CC
:100260000000000000000000E5040000E5040000BC
:10027000000000000000000000000000000000007E
:10028000000000000000000000000000000000006E
:10029000000000000000000000000000000000005E
:1002A000000000000000000000000000000000004E
:1002B000000000000000000000000000000000003E
:1002C000000000000000000000000000000000002E
:1002D000000000000000000000000000000000001E
:1002E000000000000000000000000000000000000E
:1002F00000000000000000000000000000000000FE
:1003000000000000000000000000000000000000ED
:1003100000000000000000000000000000000000DD
:1003200000000000000000000000000000000000CD
:1003300000000000000000000000000000000000BD
:10034000E5040000000000000000000000000000C4
:100350000000000000000000E5040000E5040000CB
:10036000E5040000E5040000E5040000E5040000E9
:10037000E5040000E5040000E504000000000000C2
:10038000E5040000E5040000E5040000E5040000C9
:10039000E5040000E5040000E5040000E5040000B9
:1003A0000000000000000000E5040000E50400007B
:1003B000E5040000E504000000000000000000006B
:1003C000E5040000E5040000E5040000E504000089
:1003D000E5040000E504000000000000000000004B
:1003E000000000000000000000000000000000000D
:1003F00000000000000000000000000000000000FD
:1004000000000000000000000000000000000000EC
:1004100000000000000000000000000000000000DC
:1004200000000000000000000000000000000000CC
:1004300000000000000000000000000000000000BC
:10044000E5040000000000000000000000000000C3
:10045000E5040000E5040000E504000000000000E1
:10046000E5040000E50400000000000000000000BA
:08047000E5040000E5040000B2
:1004780082B01448019000BF00BF00BF002001995E
:10048800884205D21449002241F820200130F6E7BD
:100498000D48019000200199884207D20C4951F873
:1004A80020100C4A42F820100130F4E70748016890
:1004B80041F470010160BFF34F8FBFF36F8F00F0FD
:1004C80019F800BF000000000000000088ED00E0FF
:1004D800C005000000C0032000C0032080B5012033
:1004E8008DF803009DF803000028FBD100F05AF8AE
:1004F80008BD000024482549016048F2040001684D
:10050800043800680022914248F2180306D0204CB3
:1005180004EA8204E35803510132F4E748F2040183
:10052800096803EB810148F20C02126848F20803DB
:100538001B680024A24206D0154D05EA84054E59D1
:100548005E510134F6E748F21401096848F21002D6
:1005580012680023994205D09CB2002542F8245025
:100568000133F7E70B4903220A600022C1F888200B
:10057800094901220A6009490B6843F010030B601E
:10058800074988600A6030BF08ED00E000000000FD
:10059800FCFF030018B50450000612503005045043
:1005A80000C8045081B04CF6FE2000900098002846
:0805B800FCD101B07047000006
:04000003000004797C
:00000001FF
